{
  "_format": "hh-sol-artifact-1",
  "contractName": "Stakable",
  "sourceName": "contracts/Stakable.sol",
  "abi": [
    {
      "inputs": [],
      "stateMutability": "nonpayable",
      "type": "constructor"
    },
    {
      "anonymous": false,
      "inputs": [
        {
          "indexed": true,
          "internalType": "address",
          "name": "user",
          "type": "address"
        },
        {
          "indexed": false,
          "internalType": "uint256",
          "name": "amount",
          "type": "uint256"
        },
        {
          "indexed": false,
          "internalType": "uint256",
          "name": "index",
          "type": "uint256"
        },
        {
          "indexed": false,
          "internalType": "uint256",
          "name": "timestamp",
          "type": "uint256"
        }
      ],
      "name": "Staked",
      "type": "event"
    },
    {
      "inputs": [
        {
          "internalType": "address",
          "name": "_staker",
          "type": "address"
        }
      ],
      "name": "hasStake",
      "outputs": [
        {
          "components": [
            {
              "internalType": "uint256",
              "name": "total_amount",
              "type": "uint256"
            },
            {
              "components": [
                {
                  "internalType": "address",
                  "name": "user",
                  "type": "address"
                },
                {
                  "internalType": "uint256",
                  "name": "amount",
                  "type": "uint256"
                },
                {
                  "internalType": "uint256",
                  "name": "since",
                  "type": "uint256"
                },
                {
                  "internalType": "uint256",
                  "name": "claimable",
                  "type": "uint256"
                }
              ],
              "internalType": "struct Stakable.Stake[]",
              "name": "stakes",
              "type": "tuple[]"
            }
          ],
          "internalType": "struct Stakable.StakingSummary",
          "name": "",
          "type": "tuple"
        }
      ],
      "stateMutability": "view",
      "type": "function"
    }
  ],
  "bytecode": "0x60806040526103e860025534801561001657600080fd5b5060008054600101815580526103e0806100316000396000f3fe608060405234801561001057600080fd5b506004361061002b5760003560e01c8063e73e14bf14610030575b600080fd5b61004361003e366004610278565b610059565b60405161005091906102a6565b60405180910390f35b604080518082019091526000815260606020820152600080604051806040016040528060008152602001600060016000886001600160a01b03166001600160a01b0316815260200190815260200160002054815481106100c957634e487b7160e01b600052603260045260246000fd5b9060005260206000209060020201600101805480602002602001604051908101604052809291908181526020016000905b82821015610157576000848152602090819020604080516080810182526004860290920180546001600160a01b031683526001808201548486015260028201549284019290925260030154606083015290835290920191016100fa565b505050915250905060005b81602001515181101561022d5760006101a58360200151838151811061019857634e487b7160e01b600052603260045260246000fd5b6020026020010151610237565b905080836020015183815181106101cc57634e487b7160e01b600052603260045260246000fd5b602002602001015160600181815250508260200151828151811061020057634e487b7160e01b600052603260045260246000fd5b602002602001015160200151846102179190610326565b93506102269050600182610326565b9050610162565b5090815292915050565b60006002548260200151610e10846040015142610254919061037d565b61025e919061033e565b610268919061035e565b610272919061033e565b92915050565b600060208284031215610289578081fd5b81356001600160a01b038116811461029f578182fd5b9392505050565b60006020808352606080840185518386015282860151604080818801528282518085526080945084890191508684019350875b8181101561031757845180516001600160a01b03168452888101518985015284810151858501528701518784015293870193918501916001016102d9565b50909998505050505050505050565b6000821982111561033957610339610394565b500190565b60008261035957634e487b7160e01b81526012600452602481fd5b500490565b600081600019048311821515161561037857610378610394565b500290565b60008282101561038f5761038f610394565b500390565b634e487b7160e01b600052601160045260246000fdfea26469706673582212205a73a3c5f527ec13264589c7fa3c8151558a6bcb673c70f9170afde5b97932b864736f6c63430008040033",
  "linkReferences": {},
  "deployedLinkReferences": {}
}