{
  "_format": "hh-sol-artifact-1",
  "contractName": "NFT",
  "sourceName": "contracts/NFT.sol",
  "abi": [
    {
      "inputs": [
        {
          "internalType": "address",
          "name": "marketplaceAddress",
          "type": "address"
        }
      ],
      "stateMutability": "nonpayable",
      "type": "constructor"
    },
    {
      "anonymous": false,
      "inputs": [
        {
          "indexed": true,
          "internalType": "address",
          "name": "owner",
          "type": "address"
        },
        {
          "indexed": true,
          "internalType": "address",
          "name": "approved",
          "type": "address"
        },
        {
          "indexed": true,
          "internalType": "uint256",
          "name": "tokenId",
          "type": "uint256"
        }
      ],
      "name": "Approval",
      "type": "event"
    },
    {
      "anonymous": false,
      "inputs": [
        {
          "indexed": true,
          "internalType": "address",
          "name": "owner",
          "type": "address"
        },
        {
          "indexed": true,
          "internalType": "address",
          "name": "operator",
          "type": "address"
        },
        {
          "indexed": false,
          "internalType": "bool",
          "name": "approved",
          "type": "bool"
        }
      ],
      "name": "ApprovalForAll",
      "type": "event"
    },
    {
      "anonymous": false,
      "inputs": [
        {
          "indexed": true,
          "internalType": "address",
          "name": "from",
          "type": "address"
        },
        {
          "indexed": true,
          "internalType": "address",
          "name": "to",
          "type": "address"
        },
        {
          "indexed": true,
          "internalType": "uint256",
          "name": "tokenId",
          "type": "uint256"
        }
      ],
      "name": "Transfer",
      "type": "event"
    },
    {
      "inputs": [
        {
          "internalType": "address",
          "name": "to",
          "type": "address"
        },
        {
          "internalType": "uint256",
          "name": "tokenId",
          "type": "uint256"
        }
      ],
      "name": "approve",
      "outputs": [],
      "stateMutability": "nonpayable",
      "type": "function"
    },
    {
      "inputs": [
        {
          "internalType": "address",
          "name": "owner",
          "type": "address"
        }
      ],
      "name": "balanceOf",
      "outputs": [
        {
          "internalType": "uint256",
          "name": "",
          "type": "uint256"
        }
      ],
      "stateMutability": "view",
      "type": "function"
    },
    {
      "inputs": [],
      "name": "contractURI",
      "outputs": [
        {
          "internalType": "string",
          "name": "",
          "type": "string"
        }
      ],
      "stateMutability": "view",
      "type": "function"
    },
    {
      "inputs": [
        {
          "internalType": "string",
          "name": "tokenURI",
          "type": "string"
        }
      ],
      "name": "createToken",
      "outputs": [
        {
          "internalType": "uint256",
          "name": "",
          "type": "uint256"
        }
      ],
      "stateMutability": "nonpayable",
      "type": "function"
    },
    {
      "inputs": [
        {
          "internalType": "uint256",
          "name": "tokenId",
          "type": "uint256"
        }
      ],
      "name": "getApproved",
      "outputs": [
        {
          "internalType": "address",
          "name": "",
          "type": "address"
        }
      ],
      "stateMutability": "view",
      "type": "function"
    },
    {
      "inputs": [
        {
          "internalType": "address",
          "name": "owner",
          "type": "address"
        },
        {
          "internalType": "address",
          "name": "operator",
          "type": "address"
        }
      ],
      "name": "isApprovedForAll",
      "outputs": [
        {
          "internalType": "bool",
          "name": "",
          "type": "bool"
        }
      ],
      "stateMutability": "view",
      "type": "function"
    },
    {
      "inputs": [],
      "name": "name",
      "outputs": [
        {
          "internalType": "string",
          "name": "",
          "type": "string"
        }
      ],
      "stateMutability": "view",
      "type": "function"
    },
    {
      "inputs": [
        {
          "internalType": "uint256",
          "name": "tokenId",
          "type": "uint256"
        }
      ],
      "name": "ownerOf",
      "outputs": [
        {
          "internalType": "address",
          "name": "",
          "type": "address"
        }
      ],
      "stateMutability": "view",
      "type": "function"
    },
    {
      "inputs": [
        {
          "internalType": "address",
          "name": "from",
          "type": "address"
        },
        {
          "internalType": "address",
          "name": "to",
          "type": "address"
        },
        {
          "internalType": "uint256",
          "name": "tokenId",
          "type": "uint256"
        }
      ],
      "name": "safeTransferFrom",
      "outputs": [],
      "stateMutability": "nonpayable",
      "type": "function"
    },
    {
      "inputs": [
        {
          "internalType": "address",
          "name": "from",
          "type": "address"
        },
        {
          "internalType": "address",
          "name": "to",
          "type": "address"
        },
        {
          "internalType": "uint256",
          "name": "tokenId",
          "type": "uint256"
        },
        {
          "internalType": "bytes",
          "name": "_data",
          "type": "bytes"
        }
      ],
      "name": "safeTransferFrom",
      "outputs": [],
      "stateMutability": "nonpayable",
      "type": "function"
    },
    {
      "inputs": [
        {
          "internalType": "address",
          "name": "operator",
          "type": "address"
        },
        {
          "internalType": "bool",
          "name": "approved",
          "type": "bool"
        }
      ],
      "name": "setApprovalForAll",
      "outputs": [],
      "stateMutability": "nonpayable",
      "type": "function"
    },
    {
      "inputs": [
        {
          "internalType": "bytes4",
          "name": "interfaceId",
          "type": "bytes4"
        }
      ],
      "name": "supportsInterface",
      "outputs": [
        {
          "internalType": "bool",
          "name": "",
          "type": "bool"
        }
      ],
      "stateMutability": "view",
      "type": "function"
    },
    {
      "inputs": [],
      "name": "symbol",
      "outputs": [
        {
          "internalType": "string",
          "name": "",
          "type": "string"
        }
      ],
      "stateMutability": "view",
      "type": "function"
    },
    {
      "inputs": [
        {
          "internalType": "uint256",
          "name": "tokenId",
          "type": "uint256"
        }
      ],
      "name": "tokenURI",
      "outputs": [
        {
          "internalType": "string",
          "name": "",
          "type": "string"
        }
      ],
      "stateMutability": "view",
      "type": "function"
    },
    {
      "inputs": [
        {
          "internalType": "address",
          "name": "from",
          "type": "address"
        },
        {
          "internalType": "address",
          "name": "to",
          "type": "address"
        },
        {
          "internalType": "uint256",
          "name": "tokenId",
          "type": "uint256"
        }
      ],
      "name": "transferFrom",
      "outputs": [],
      "stateMutability": "nonpayable",
      "type": "function"
    }
  ],
  "bytecode": "0x60806040523480156200001157600080fd5b506040516200197b3803806200197b833981016040819052620000349162000167565b60408051808201825260098152684d657461766572736560b81b6020808301918252835180850190945260048452631351551560e21b9084015281519192916200008191600091620000c1565b50805162000097906001906020840190620000c1565b5050600880546001600160a01b0319166001600160a01b03939093169290921790915550620001d4565b828054620000cf9062000197565b90600052602060002090601f016020900481019282620000f357600085556200013e565b82601f106200010e57805160ff19168380011785556200013e565b828001600101855582156200013e579182015b828111156200013e57825182559160200191906001019062000121565b506200014c92915062000150565b5090565b5b808211156200014c576000815560010162000151565b60006020828403121562000179578081fd5b81516001600160a01b038116811462000190578182fd5b9392505050565b600181811c90821680620001ac57607f821691505b60208210811415620001ce57634e487b7160e01b600052602260045260246000fd5b50919050565b61179780620001e46000396000f3fe608060405234801561001057600080fd5b50600436106100f55760003560e01c80636352211e11610097578063b88d4fde11610066578063b88d4fde146101ff578063c87b56dd14610212578063e8a3d48514610225578063e985e9c51461022d57600080fd5b80636352211e146101be57806370a08231146101d157806395d89b41146101e4578063a22cb465146101ec57600080fd5b8063095ea7b3116100d3578063095ea7b31461016257806323b872dd1461017757806342842e0e1461018a57806345576f941461019d57600080fd5b806301ffc9a7146100fa57806306fdde0314610122578063081812fc14610137575b600080fd5b61010d6101083660046113b4565b610269565b60405190151581526020015b60405180910390f35b61012a6102bb565b60405161011991906114e2565b61014a610145366004611432565b61034d565b6040516001600160a01b039091168152602001610119565b61017561017036600461138b565b6103da565b005b61017561018536600461129d565b6104f0565b61017561019836600461129d565b610521565b6101b06101ab3660046113ec565b61053c565b604051908152602001610119565b61014a6101cc366004611432565b610584565b6101b06101df366004611251565b6105fb565b61012a610682565b6101756101fa366004611351565b610691565b61017561020d3660046112d8565b610756565b61012a610220366004611432565b61078e565b61012a610905565b61010d61023b36600461126b565b6001600160a01b03918216600090815260056020908152604080832093909416825291909152205460ff1690565b60006001600160e01b031982166380ac58cd60e01b148061029a57506001600160e01b03198216635b5e139f60e01b145b806102b557506301ffc9a760e01b6001600160e01b03198316145b92915050565b6060600080546102ca90611607565b80601f01602080910402602001604051908101604052809291908181526020018280546102f690611607565b80156103435780601f1061031857610100808354040283529160200191610343565b820191906000526020600020905b81548152906001019060200180831161032657829003601f168201915b5050505050905090565b600061035882610925565b6103be5760405162461bcd60e51b815260206004820152602c60248201527f4552433732313a20617070726f76656420717565727920666f72206e6f6e657860448201526b34b9ba32b73a103a37b5b2b760a11b60648201526084015b60405180910390fd5b506000908152600460205260409020546001600160a01b031690565b60006103e582610584565b9050806001600160a01b0316836001600160a01b031614156104535760405162461bcd60e51b815260206004820152602160248201527f4552433732313a20617070726f76616c20746f2063757272656e74206f776e656044820152603960f91b60648201526084016103b5565b336001600160a01b038216148061046f575061046f813361023b565b6104e15760405162461bcd60e51b815260206004820152603860248201527f4552433732313a20617070726f76652063616c6c6572206973206e6f74206f7760448201527f6e6572206e6f7220617070726f76656420666f7220616c6c000000000000000060648201526084016103b5565b6104eb8383610942565b505050565b6104fa33826109b0565b6105165760405162461bcd60e51b81526004016103b590611547565b6104eb838383610a96565b6104eb83838360405180602001604052806000815250610756565b600061054c600780546001019055565b600061055760075490565b90506105633382610c36565b61056d8184610d69565b6008546102b5906001600160a01b03166001610691565b6000818152600260205260408120546001600160a01b0316806102b55760405162461bcd60e51b815260206004820152602960248201527f4552433732313a206f776e657220717565727920666f72206e6f6e657869737460448201526832b73a103a37b5b2b760b91b60648201526084016103b5565b60006001600160a01b0382166106665760405162461bcd60e51b815260206004820152602a60248201527f4552433732313a2062616c616e636520717565727920666f7220746865207a65604482015269726f206164647265737360b01b60648201526084016103b5565b506001600160a01b031660009081526003602052604090205490565b6060600180546102ca90611607565b6001600160a01b0382163314156106ea5760405162461bcd60e51b815260206004820152601960248201527f4552433732313a20617070726f766520746f2063616c6c65720000000000000060448201526064016103b5565b3360008181526005602090815260408083206001600160a01b03871680855290835292819020805460ff191686151590811790915590519081529192917f17307eab39ab6107e8899845ad3d59bd9653f200f220920489ca2b5937696c31910160405180910390a35050565b61076033836109b0565b61077c5760405162461bcd60e51b81526004016103b590611547565b61078884848484610df4565b50505050565b606061079982610925565b6107ff5760405162461bcd60e51b815260206004820152603160248201527f45524337323155524953746f726167653a2055524920717565727920666f72206044820152703737b732bc34b9ba32b73a103a37b5b2b760791b60648201526084016103b5565b6000828152600660205260408120805461081890611607565b80601f016020809104026020016040519081016040528092919081815260200182805461084490611607565b80156108915780601f1061086657610100808354040283529160200191610891565b820191906000526020600020905b81548152906001019060200180831161087457829003601f168201915b5050505050905060006108af60408051602081019091526000815290565b90508051600014156108c2575092915050565b8151156108f45780826040516020016108dc929190611476565b60405160208183030381529060405292505050919050565b6108fd84610e27565b949350505050565b60606040518060c00160405280609581526020016116cd60959139905090565b6000908152600260205260409020546001600160a01b0316151590565b600081815260046020526040902080546001600160a01b0319166001600160a01b038416908117909155819061097782610584565b6001600160a01b03167f8c5be1e5ebec7d5bd14f71427d1e84f3dd0314c0f7b2291e5b200ac8c7c3b92560405160405180910390a45050565b60006109bb82610925565b610a1c5760405162461bcd60e51b815260206004820152602c60248201527f4552433732313a206f70657261746f7220717565727920666f72206e6f6e657860448201526b34b9ba32b73a103a37b5b2b760a11b60648201526084016103b5565b6000610a2783610584565b9050806001600160a01b0316846001600160a01b03161480610a625750836001600160a01b0316610a578461034d565b6001600160a01b0316145b806108fd57506001600160a01b0380821660009081526005602090815260408083209388168352929052205460ff166108fd565b826001600160a01b0316610aa982610584565b6001600160a01b031614610b115760405162461bcd60e51b815260206004820152602960248201527f4552433732313a207472616e73666572206f6620746f6b656e2074686174206960448201526839903737ba1037bbb760b91b60648201526084016103b5565b6001600160a01b038216610b735760405162461bcd60e51b8152602060048201526024808201527f4552433732313a207472616e7366657220746f20746865207a65726f206164646044820152637265737360e01b60648201526084016103b5565b610b7e600082610942565b6001600160a01b0383166000908152600360205260408120805460019290610ba79084906115c4565b90915550506001600160a01b0382166000908152600360205260408120805460019290610bd5908490611598565b909155505060008181526002602052604080822080546001600160a01b0319166001600160a01b0386811691821790925591518493918716917fddf252ad1be2c89b69c2b068fc378daa952ba7f163c4a11628f55a4df523b3ef91a4505050565b6001600160a01b038216610c8c5760405162461bcd60e51b815260206004820181905260248201527f4552433732313a206d696e7420746f20746865207a65726f206164647265737360448201526064016103b5565b610c9581610925565b15610ce25760405162461bcd60e51b815260206004820152601c60248201527f4552433732313a20746f6b656e20616c7265616479206d696e7465640000000060448201526064016103b5565b6001600160a01b0382166000908152600360205260408120805460019290610d0b908490611598565b909155505060008181526002602052604080822080546001600160a01b0319166001600160a01b03861690811790915590518392907fddf252ad1be2c89b69c2b068fc378daa952ba7f163c4a11628f55a4df523b3ef908290a45050565b610d7282610925565b610dd55760405162461bcd60e51b815260206004820152602e60248201527f45524337323155524953746f726167653a2055524920736574206f66206e6f6e60448201526d32bc34b9ba32b73a103a37b5b2b760911b60648201526084016103b5565b600082815260066020908152604090912082516104eb92840190611126565b610dff848484610a96565b610e0b84848484610eff565b6107885760405162461bcd60e51b81526004016103b5906114f5565b6060610e3282610925565b610e965760405162461bcd60e51b815260206004820152602f60248201527f4552433732314d657461646174613a2055524920717565727920666f72206e6f60448201526e3732bc34b9ba32b73a103a37b5b2b760891b60648201526084016103b5565b6000610ead60408051602081019091526000815290565b90506000815111610ecd5760405180602001604052806000815250610ef8565b80610ed78461100c565b604051602001610ee8929190611476565b6040516020818303038152906040525b9392505050565b60006001600160a01b0384163b1561100157604051630a85bd0160e11b81526001600160a01b0385169063150b7a0290610f439033908990889088906004016114a5565b602060405180830381600087803b158015610f5d57600080fd5b505af1925050508015610f8d575060408051601f3d908101601f19168201909252610f8a918101906113d0565b60015b610fe7573d808015610fbb576040519150601f19603f3d011682016040523d82523d6000602084013e610fc0565b606091505b508051610fdf5760405162461bcd60e51b81526004016103b5906114f5565b805181602001fd5b6001600160e01b031916630a85bd0160e11b1490506108fd565b506001949350505050565b6060816110305750506040805180820190915260018152600360fc1b602082015290565b8160005b811561105a578061104481611642565b91506110539050600a836115b0565b9150611034565b60008167ffffffffffffffff81111561108357634e487b7160e01b600052604160045260246000fd5b6040519080825280601f01601f1916602001820160405280156110ad576020820181803683370190505b5090505b84156108fd576110c26001836115c4565b91506110cf600a8661165d565b6110da906030611598565b60f81b8183815181106110fd57634e487b7160e01b600052603260045260246000fd5b60200101906001600160f81b031916908160001a90535061111f600a866115b0565b94506110b1565b82805461113290611607565b90600052602060002090601f016020900481019282611154576000855561119a565b82601f1061116d57805160ff191683800117855561119a565b8280016001018555821561119a579182015b8281111561119a57825182559160200191906001019061117f565b506111a69291506111aa565b5090565b5b808211156111a657600081556001016111ab565b600067ffffffffffffffff808411156111da576111da61169d565b604051601f8501601f19908116603f011681019082821181831017156112025761120261169d565b8160405280935085815286868601111561121b57600080fd5b858560208301376000602087830101525050509392505050565b80356001600160a01b038116811461124c57600080fd5b919050565b600060208284031215611262578081fd5b610ef882611235565b6000806040838503121561127d578081fd5b61128683611235565b915061129460208401611235565b90509250929050565b6000806000606084860312156112b1578081fd5b6112ba84611235565b92506112c860208501611235565b9150604084013590509250925092565b600080600080608085870312156112ed578081fd5b6112f685611235565b935061130460208601611235565b925060408501359150606085013567ffffffffffffffff811115611326578182fd5b8501601f81018713611336578182fd5b611345878235602084016111bf565b91505092959194509250565b60008060408385031215611363578182fd5b61136c83611235565b915060208301358015158114611380578182fd5b809150509250929050565b6000806040838503121561139d578182fd5b6113a683611235565b946020939093013593505050565b6000602082840312156113c5578081fd5b8135610ef8816116b3565b6000602082840312156113e1578081fd5b8151610ef8816116b3565b6000602082840312156113fd578081fd5b813567ffffffffffffffff811115611413578182fd5b8201601f81018413611423578182fd5b6108fd848235602084016111bf565b600060208284031215611443578081fd5b5035919050565b600081518084526114628160208601602086016115db565b601f01601f19169290920160200192915050565b600083516114888184602088016115db565b83519083019061149c8183602088016115db565b01949350505050565b6001600160a01b03858116825284166020820152604081018390526080606082018190526000906114d89083018461144a565b9695505050505050565b602081526000610ef8602083018461144a565b60208082526032908201527f4552433732313a207472616e7366657220746f206e6f6e20455243373231526560408201527131b2b4bb32b91034b6b83632b6b2b73a32b960711b606082015260800190565b60208082526031908201527f4552433732313a207472616e736665722063616c6c6572206973206e6f74206f6040820152701ddb995c881b9bdc88185c1c1c9bdd9959607a1b606082015260800190565b600082198211156115ab576115ab611671565b500190565b6000826115bf576115bf611687565b500490565b6000828210156115d6576115d6611671565b500390565b60005b838110156115f65781810151838201526020016115de565b838111156107885750506000910152565b600181811c9082168061161b57607f821691505b6020821081141561163c57634e487b7160e01b600052602260045260246000fd5b50919050565b600060001982141561165657611656611671565b5060010190565b60008261166c5761166c611687565b500690565b634e487b7160e01b600052601160045260246000fd5b634e487b7160e01b600052601260045260246000fd5b634e487b7160e01b600052604160045260246000fd5b6001600160e01b0319811681146116c957600080fd5b5056fe68747470733a2f2f666972656261736573746f726167652e676f6f676c65617069732e636f6d2f76302f622f7061792d612d766567616e2e61707073706f742e636f6d2f6f2f6e667425324663686f63686f2d636f6e74726163742e6a736f6e3f616c743d6d6564696126746f6b656e3d61653232393330612d306364372d343930632d616431302d313136346533323736636465a2646970667358221220967bc5a3e9d0caf2966dc74fac21dd4911256e4d8ce45209e63e76350894764d64736f6c63430008040033",
  "linkReferences": {},
  "deployedLinkReferences": {}
}