{
  "contracts/Stakable.sol": {
    "Stakable": {
      "abi": [
        {
          "inputs": [],
          "stateMutability": "nonpayable",
          "type": "constructor"
        },
        {
          "anonymous": false,
          "inputs": [
            {
              "indexed": true,
              "internalType": "address",
              "name": "user",
              "type": "address"
            },
            {
              "indexed": false,
              "internalType": "uint256",
              "name": "amount",
              "type": "uint256"
            },
            {
              "indexed": false,
              "internalType": "uint256",
              "name": "index",
              "type": "uint256"
            },
            {
              "indexed": false,
              "internalType": "uint256",
              "name": "timestamp",
              "type": "uint256"
            }
          ],
          "name": "Staked",
          "type": "event"
        },
        {
          "inputs": [
            {
              "internalType": "address",
              "name": "_staker",
              "type": "address"
            }
          ],
          "name": "hasStake",
          "outputs": [
            {
              "components": [
                {
                  "internalType": "uint256",
                  "name": "total_amount",
                  "type": "uint256"
                },
                {
                  "components": [
                    {
                      "internalType": "address",
                      "name": "user",
                      "type": "address"
                    },
                    {
                      "internalType": "uint256",
                      "name": "amount",
                      "type": "uint256"
                    },
                    {
                      "internalType": "uint256",
                      "name": "since",
                      "type": "uint256"
                    },
                    {
                      "internalType": "uint256",
                      "name": "claimable",
                      "type": "uint256"
                    }
                  ],
                  "internalType": "struct Stakable.Stake[]",
                  "name": "stakes",
                  "type": "tuple[]"
                }
              ],
              "internalType": "struct Stakable.StakingSummary",
              "name": "",
              "type": "tuple"
            }
          ],
          "stateMutability": "view",
          "type": "function"
        }
      ],
      "evm": {
        "bytecode": {
          "linkReferences": {},
          "object": "60806040526103e860025534801561001657600080fd5b5060008054600101815580526103e0806100316000396000f3fe608060405234801561001057600080fd5b506004361061002b5760003560e01c8063e73e14bf14610030575b600080fd5b61004361003e366004610278565b610059565b60405161005091906102a6565b60405180910390f35b604080518082019091526000815260606020820152600080604051806040016040528060008152602001600060016000886001600160a01b03166001600160a01b0316815260200190815260200160002054815481106100c957634e487b7160e01b600052603260045260246000fd5b9060005260206000209060020201600101805480602002602001604051908101604052809291908181526020016000905b82821015610157576000848152602090819020604080516080810182526004860290920180546001600160a01b031683526001808201548486015260028201549284019290925260030154606083015290835290920191016100fa565b505050915250905060005b81602001515181101561022d5760006101a58360200151838151811061019857634e487b7160e01b600052603260045260246000fd5b6020026020010151610237565b905080836020015183815181106101cc57634e487b7160e01b600052603260045260246000fd5b602002602001015160600181815250508260200151828151811061020057634e487b7160e01b600052603260045260246000fd5b602002602001015160200151846102179190610326565b93506102269050600182610326565b9050610162565b5090815292915050565b60006002548260200151610e10846040015142610254919061037d565b61025e919061033e565b610268919061035e565b610272919061033e565b92915050565b600060208284031215610289578081fd5b81356001600160a01b038116811461029f578182fd5b9392505050565b60006020808352606080840185518386015282860151604080818801528282518085526080945084890191508684019350875b8181101561031757845180516001600160a01b03168452888101518985015284810151858501528701518784015293870193918501916001016102d9565b50909998505050505050505050565b6000821982111561033957610339610394565b500190565b60008261035957634e487b7160e01b81526012600452602481fd5b500490565b600081600019048311821515161561037857610378610394565b500290565b60008282101561038f5761038f610394565b500390565b634e487b7160e01b600052601160045260246000fdfea26469706673582212205a73a3c5f527ec13264589c7fa3c8151558a6bcb673c70f9170afde5b97932b864736f6c63430008040033",
          "opcodes": "PUSH1 0x80 PUSH1 0x40 MSTORE PUSH2 0x3E8 PUSH1 0x2 SSTORE CALLVALUE DUP1 ISZERO PUSH2 0x16 JUMPI PUSH1 0x0 DUP1 REVERT JUMPDEST POP PUSH1 0x0 DUP1 SLOAD PUSH1 0x1 ADD DUP2 SSTORE DUP1 MSTORE PUSH2 0x3E0 DUP1 PUSH2 0x31 PUSH1 0x0 CODECOPY PUSH1 0x0 RETURN INVALID PUSH1 0x80 PUSH1 0x40 MSTORE CALLVALUE DUP1 ISZERO PUSH2 0x10 JUMPI PUSH1 0x0 DUP1 REVERT JUMPDEST POP PUSH1 0x4 CALLDATASIZE LT PUSH2 0x2B JUMPI PUSH1 0x0 CALLDATALOAD PUSH1 0xE0 SHR DUP1 PUSH4 0xE73E14BF EQ PUSH2 0x30 JUMPI JUMPDEST PUSH1 0x0 DUP1 REVERT JUMPDEST PUSH2 0x43 PUSH2 0x3E CALLDATASIZE PUSH1 0x4 PUSH2 0x278 JUMP JUMPDEST PUSH2 0x59 JUMP JUMPDEST PUSH1 0x40 MLOAD PUSH2 0x50 SWAP2 SWAP1 PUSH2 0x2A6 JUMP JUMPDEST PUSH1 0x40 MLOAD DUP1 SWAP2 SUB SWAP1 RETURN JUMPDEST PUSH1 0x40 DUP1 MLOAD DUP1 DUP3 ADD SWAP1 SWAP2 MSTORE PUSH1 0x0 DUP2 MSTORE PUSH1 0x60 PUSH1 0x20 DUP3 ADD MSTORE PUSH1 0x0 DUP1 PUSH1 0x40 MLOAD DUP1 PUSH1 0x40 ADD PUSH1 0x40 MSTORE DUP1 PUSH1 0x0 DUP2 MSTORE PUSH1 0x20 ADD PUSH1 0x0 PUSH1 0x1 PUSH1 0x0 DUP9 PUSH1 0x1 PUSH1 0x1 PUSH1 0xA0 SHL SUB AND PUSH1 0x1 PUSH1 0x1 PUSH1 0xA0 SHL SUB AND DUP2 MSTORE PUSH1 0x20 ADD SWAP1 DUP2 MSTORE PUSH1 0x20 ADD PUSH1 0x0 KECCAK256 SLOAD DUP2 SLOAD DUP2 LT PUSH2 0xC9 JUMPI PUSH4 0x4E487B71 PUSH1 0xE0 SHL PUSH1 0x0 MSTORE PUSH1 0x32 PUSH1 0x4 MSTORE PUSH1 0x24 PUSH1 0x0 REVERT JUMPDEST SWAP1 PUSH1 0x0 MSTORE PUSH1 0x20 PUSH1 0x0 KECCAK256 SWAP1 PUSH1 0x2 MUL ADD PUSH1 0x1 ADD DUP1 SLOAD DUP1 PUSH1 0x20 MUL PUSH1 0x20 ADD PUSH1 0x40 MLOAD SWAP1 DUP2 ADD PUSH1 0x40 MSTORE DUP1 SWAP3 SWAP2 SWAP1 DUP2 DUP2 MSTORE PUSH1 0x20 ADD PUSH1 0x0 SWAP1 JUMPDEST DUP3 DUP3 LT ISZERO PUSH2 0x157 JUMPI PUSH1 0x0 DUP5 DUP2 MSTORE PUSH1 0x20 SWAP1 DUP2 SWAP1 KECCAK256 PUSH1 0x40 DUP1 MLOAD PUSH1 0x80 DUP2 ADD DUP3 MSTORE PUSH1 0x4 DUP7 MUL SWAP1 SWAP3 ADD DUP1 SLOAD PUSH1 0x1 PUSH1 0x1 PUSH1 0xA0 SHL SUB AND DUP4 MSTORE PUSH1 0x1 DUP1 DUP3 ADD SLOAD DUP5 DUP7 ADD MSTORE PUSH1 0x2 DUP3 ADD SLOAD SWAP3 DUP5 ADD SWAP3 SWAP1 SWAP3 MSTORE PUSH1 0x3 ADD SLOAD PUSH1 0x60 DUP4 ADD MSTORE SWAP1 DUP4 MSTORE SWAP1 SWAP3 ADD SWAP2 ADD PUSH2 0xFA JUMP JUMPDEST POP POP POP SWAP2 MSTORE POP SWAP1 POP PUSH1 0x0 JUMPDEST DUP2 PUSH1 0x20 ADD MLOAD MLOAD DUP2 LT ISZERO PUSH2 0x22D JUMPI PUSH1 0x0 PUSH2 0x1A5 DUP4 PUSH1 0x20 ADD MLOAD DUP4 DUP2 MLOAD DUP2 LT PUSH2 0x198 JUMPI PUSH4 0x4E487B71 PUSH1 0xE0 SHL PUSH1 0x0 MSTORE PUSH1 0x32 PUSH1 0x4 MSTORE PUSH1 0x24 PUSH1 0x0 REVERT JUMPDEST PUSH1 0x20 MUL PUSH1 0x20 ADD ADD MLOAD PUSH2 0x237 JUMP JUMPDEST SWAP1 POP DUP1 DUP4 PUSH1 0x20 ADD MLOAD DUP4 DUP2 MLOAD DUP2 LT PUSH2 0x1CC JUMPI PUSH4 0x4E487B71 PUSH1 0xE0 SHL PUSH1 0x0 MSTORE PUSH1 0x32 PUSH1 0x4 MSTORE PUSH1 0x24 PUSH1 0x0 REVERT JUMPDEST PUSH1 0x20 MUL PUSH1 0x20 ADD ADD MLOAD PUSH1 0x60 ADD DUP2 DUP2 MSTORE POP POP DUP3 PUSH1 0x20 ADD MLOAD DUP3 DUP2 MLOAD DUP2 LT PUSH2 0x200 JUMPI PUSH4 0x4E487B71 PUSH1 0xE0 SHL PUSH1 0x0 MSTORE PUSH1 0x32 PUSH1 0x4 MSTORE PUSH1 0x24 PUSH1 0x0 REVERT JUMPDEST PUSH1 0x20 MUL PUSH1 0x20 ADD ADD MLOAD PUSH1 0x20 ADD MLOAD DUP5 PUSH2 0x217 SWAP2 SWAP1 PUSH2 0x326 JUMP JUMPDEST SWAP4 POP PUSH2 0x226 SWAP1 POP PUSH1 0x1 DUP3 PUSH2 0x326 JUMP JUMPDEST SWAP1 POP PUSH2 0x162 JUMP JUMPDEST POP SWAP1 DUP2 MSTORE SWAP3 SWAP2 POP POP JUMP JUMPDEST PUSH1 0x0 PUSH1 0x2 SLOAD DUP3 PUSH1 0x20 ADD MLOAD PUSH2 0xE10 DUP5 PUSH1 0x40 ADD MLOAD TIMESTAMP PUSH2 0x254 SWAP2 SWAP1 PUSH2 0x37D JUMP JUMPDEST PUSH2 0x25E SWAP2 SWAP1 PUSH2 0x33E JUMP JUMPDEST PUSH2 0x268 SWAP2 SWAP1 PUSH2 0x35E JUMP JUMPDEST PUSH2 0x272 SWAP2 SWAP1 PUSH2 0x33E JUMP JUMPDEST SWAP3 SWAP2 POP POP JUMP JUMPDEST PUSH1 0x0 PUSH1 0x20 DUP3 DUP5 SUB SLT ISZERO PUSH2 0x289 JUMPI DUP1 DUP2 REVERT JUMPDEST DUP2 CALLDATALOAD PUSH1 0x1 PUSH1 0x1 PUSH1 0xA0 SHL SUB DUP2 AND DUP2 EQ PUSH2 0x29F JUMPI DUP2 DUP3 REVERT JUMPDEST SWAP4 SWAP3 POP POP POP JUMP JUMPDEST PUSH1 0x0 PUSH1 0x20 DUP1 DUP4 MSTORE PUSH1 0x60 DUP1 DUP5 ADD DUP6 MLOAD DUP4 DUP7 ADD MSTORE DUP3 DUP7 ADD MLOAD PUSH1 0x40 DUP1 DUP2 DUP9 ADD MSTORE DUP3 DUP3 MLOAD DUP1 DUP6 MSTORE PUSH1 0x80 SWAP5 POP DUP5 DUP10 ADD SWAP2 POP DUP7 DUP5 ADD SWAP4 POP DUP8 JUMPDEST DUP2 DUP2 LT ISZERO PUSH2 0x317 JUMPI DUP5 MLOAD DUP1 MLOAD PUSH1 0x1 PUSH1 0x1 PUSH1 0xA0 SHL SUB AND DUP5 MSTORE DUP9 DUP2 ADD MLOAD DUP10 DUP6 ADD MSTORE DUP5 DUP2 ADD MLOAD DUP6 DUP6 ADD MSTORE DUP8 ADD MLOAD DUP8 DUP5 ADD MSTORE SWAP4 DUP8 ADD SWAP4 SWAP2 DUP6 ADD SWAP2 PUSH1 0x1 ADD PUSH2 0x2D9 JUMP JUMPDEST POP SWAP1 SWAP10 SWAP9 POP POP POP POP POP POP POP POP POP JUMP JUMPDEST PUSH1 0x0 DUP3 NOT DUP3 GT ISZERO PUSH2 0x339 JUMPI PUSH2 0x339 PUSH2 0x394 JUMP JUMPDEST POP ADD SWAP1 JUMP JUMPDEST PUSH1 0x0 DUP3 PUSH2 0x359 JUMPI PUSH4 0x4E487B71 PUSH1 0xE0 SHL DUP2 MSTORE PUSH1 0x12 PUSH1 0x4 MSTORE PUSH1 0x24 DUP2 REVERT JUMPDEST POP DIV SWAP1 JUMP JUMPDEST PUSH1 0x0 DUP2 PUSH1 0x0 NOT DIV DUP4 GT DUP3 ISZERO ISZERO AND ISZERO PUSH2 0x378 JUMPI PUSH2 0x378 PUSH2 0x394 JUMP JUMPDEST POP MUL SWAP1 JUMP JUMPDEST PUSH1 0x0 DUP3 DUP3 LT ISZERO PUSH2 0x38F JUMPI PUSH2 0x38F PUSH2 0x394 JUMP JUMPDEST POP SUB SWAP1 JUMP JUMPDEST PUSH4 0x4E487B71 PUSH1 0xE0 SHL PUSH1 0x0 MSTORE PUSH1 0x11 PUSH1 0x4 MSTORE PUSH1 0x24 PUSH1 0x0 REVERT INVALID LOG2 PUSH5 0x6970667358 0x22 SLT KECCAK256 GAS PUSH20 0xA3C5F527EC13264589C7FA3C8151558A6BCB673C PUSH17 0xF9170AFDE5B97932B864736F6C63430008 DIV STOP CALLER "
        },
        "methodIdentifiers": {
          "hasStake(address)": "e73e14bf"
        }
      }
    }
  }
}