{
  "_format": "hh-sol-artifact-1",
  "contractName": "Chocho",
  "sourceName": "contracts/Chocho.sol",
  "abi": [
    {
      "inputs": [
        {
          "internalType": "string",
          "name": "token_name",
          "type": "string"
        },
        {
          "internalType": "string",
          "name": "short_symbol",
          "type": "string"
        },
        {
          "internalType": "uint8",
          "name": "token_decimals",
          "type": "uint8"
        },
        {
          "internalType": "uint256",
          "name": "token_totalSupply",
          "type": "uint256"
        }
      ],
      "stateMutability": "nonpayable",
      "type": "constructor"
    },
    {
      "anonymous": false,
      "inputs": [
        {
          "indexed": true,
          "internalType": "address",
          "name": "owner",
          "type": "address"
        },
        {
          "indexed": true,
          "internalType": "address",
          "name": "spender",
          "type": "address"
        },
        {
          "indexed": false,
          "internalType": "uint256",
          "name": "value",
          "type": "uint256"
        }
      ],
      "name": "Approval",
      "type": "event"
    },
    {
      "anonymous": false,
      "inputs": [
        {
          "indexed": true,
          "internalType": "address",
          "name": "previousOwner",
          "type": "address"
        },
        {
          "indexed": true,
          "internalType": "address",
          "name": "newOwner",
          "type": "address"
        }
      ],
      "name": "OwnershipTransferred",
      "type": "event"
    },
    {
      "anonymous": false,
      "inputs": [
        {
          "indexed": true,
          "internalType": "address",
          "name": "user",
          "type": "address"
        },
        {
          "indexed": false,
          "internalType": "uint256",
          "name": "amount",
          "type": "uint256"
        },
        {
          "indexed": false,
          "internalType": "uint256",
          "name": "index",
          "type": "uint256"
        },
        {
          "indexed": false,
          "internalType": "uint256",
          "name": "timestamp",
          "type": "uint256"
        }
      ],
      "name": "Staked",
      "type": "event"
    },
    {
      "anonymous": false,
      "inputs": [
        {
          "indexed": true,
          "internalType": "address",
          "name": "from",
          "type": "address"
        },
        {
          "indexed": true,
          "internalType": "address",
          "name": "to",
          "type": "address"
        },
        {
          "indexed": false,
          "internalType": "uint256",
          "name": "value",
          "type": "uint256"
        }
      ],
      "name": "Transfer",
      "type": "event"
    },
    {
      "inputs": [
        {
          "internalType": "address",
          "name": "owner",
          "type": "address"
        },
        {
          "internalType": "address",
          "name": "spender",
          "type": "address"
        }
      ],
      "name": "allowance",
      "outputs": [
        {
          "internalType": "uint256",
          "name": "",
          "type": "uint256"
        }
      ],
      "stateMutability": "view",
      "type": "function"
    },
    {
      "inputs": [
        {
          "internalType": "address",
          "name": "spender",
          "type": "address"
        },
        {
          "internalType": "uint256",
          "name": "amount",
          "type": "uint256"
        }
      ],
      "name": "approve",
      "outputs": [
        {
          "internalType": "bool",
          "name": "",
          "type": "bool"
        }
      ],
      "stateMutability": "nonpayable",
      "type": "function"
    },
    {
      "inputs": [
        {
          "internalType": "address",
          "name": "account",
          "type": "address"
        }
      ],
      "name": "balanceOf",
      "outputs": [
        {
          "internalType": "uint256",
          "name": "",
          "type": "uint256"
        }
      ],
      "stateMutability": "view",
      "type": "function"
    },
    {
      "inputs": [
        {
          "internalType": "address",
          "name": "account",
          "type": "address"
        },
        {
          "internalType": "uint256",
          "name": "amount",
          "type": "uint256"
        }
      ],
      "name": "burn",
      "outputs": [
        {
          "internalType": "bool",
          "name": "",
          "type": "bool"
        }
      ],
      "stateMutability": "nonpayable",
      "type": "function"
    },
    {
      "inputs": [],
      "name": "decimals",
      "outputs": [
        {
          "internalType": "uint8",
          "name": "",
          "type": "uint8"
        }
      ],
      "stateMutability": "view",
      "type": "function"
    },
    {
      "inputs": [
        {
          "internalType": "address",
          "name": "spender",
          "type": "address"
        },
        {
          "internalType": "uint256",
          "name": "amount",
          "type": "uint256"
        }
      ],
      "name": "decreaseAllowance",
      "outputs": [
        {
          "internalType": "bool",
          "name": "",
          "type": "bool"
        }
      ],
      "stateMutability": "nonpayable",
      "type": "function"
    },
    {
      "inputs": [],
      "name": "getOwner",
      "outputs": [
        {
          "internalType": "address",
          "name": "",
          "type": "address"
        }
      ],
      "stateMutability": "view",
      "type": "function"
    },
    {
      "inputs": [
        {
          "internalType": "address",
          "name": "_staker",
          "type": "address"
        }
      ],
      "name": "hasStake",
      "outputs": [
        {
          "components": [
            {
              "internalType": "uint256",
              "name": "total_amount",
              "type": "uint256"
            },
            {
              "components": [
                {
                  "internalType": "address",
                  "name": "user",
                  "type": "address"
                },
                {
                  "internalType": "uint256",
                  "name": "amount",
                  "type": "uint256"
                },
                {
                  "internalType": "uint256",
                  "name": "since",
                  "type": "uint256"
                },
                {
                  "internalType": "uint256",
                  "name": "claimable",
                  "type": "uint256"
                }
              ],
              "internalType": "struct Stakable.Stake[]",
              "name": "stakes",
              "type": "tuple[]"
            }
          ],
          "internalType": "struct Stakable.StakingSummary",
          "name": "",
          "type": "tuple"
        }
      ],
      "stateMutability": "view",
      "type": "function"
    },
    {
      "inputs": [
        {
          "internalType": "address",
          "name": "spender",
          "type": "address"
        },
        {
          "internalType": "uint256",
          "name": "amount",
          "type": "uint256"
        }
      ],
      "name": "increaseAllowance",
      "outputs": [
        {
          "internalType": "bool",
          "name": "",
          "type": "bool"
        }
      ],
      "stateMutability": "nonpayable",
      "type": "function"
    },
    {
      "inputs": [
        {
          "internalType": "address",
          "name": "account",
          "type": "address"
        },
        {
          "internalType": "uint256",
          "name": "amount",
          "type": "uint256"
        }
      ],
      "name": "mint",
      "outputs": [
        {
          "internalType": "bool",
          "name": "",
          "type": "bool"
        }
      ],
      "stateMutability": "nonpayable",
      "type": "function"
    },
    {
      "inputs": [],
      "name": "name",
      "outputs": [
        {
          "internalType": "string",
          "name": "",
          "type": "string"
        }
      ],
      "stateMutability": "view",
      "type": "function"
    },
    {
      "inputs": [],
      "name": "owner",
      "outputs": [
        {
          "internalType": "address",
          "name": "",
          "type": "address"
        }
      ],
      "stateMutability": "view",
      "type": "function"
    },
    {
      "inputs": [],
      "name": "renounceOwnership",
      "outputs": [],
      "stateMutability": "nonpayable",
      "type": "function"
    },
    {
      "inputs": [
        {
          "internalType": "uint256",
          "name": "_amount",
          "type": "uint256"
        }
      ],
      "name": "stake",
      "outputs": [],
      "stateMutability": "nonpayable",
      "type": "function"
    },
    {
      "inputs": [],
      "name": "symbol",
      "outputs": [
        {
          "internalType": "string",
          "name": "",
          "type": "string"
        }
      ],
      "stateMutability": "view",
      "type": "function"
    },
    {
      "inputs": [],
      "name": "totalSupply",
      "outputs": [
        {
          "internalType": "uint256",
          "name": "",
          "type": "uint256"
        }
      ],
      "stateMutability": "view",
      "type": "function"
    },
    {
      "inputs": [
        {
          "internalType": "address",
          "name": "recipient",
          "type": "address"
        },
        {
          "internalType": "uint256",
          "name": "amount",
          "type": "uint256"
        }
      ],
      "name": "transfer",
      "outputs": [
        {
          "internalType": "bool",
          "name": "",
          "type": "bool"
        }
      ],
      "stateMutability": "nonpayable",
      "type": "function"
    },
    {
      "inputs": [
        {
          "internalType": "address",
          "name": "spender",
          "type": "address"
        },
        {
          "internalType": "address",
          "name": "recipient",
          "type": "address"
        },
        {
          "internalType": "uint256",
          "name": "amount",
          "type": "uint256"
        }
      ],
      "name": "transferFrom",
      "outputs": [
        {
          "internalType": "bool",
          "name": "",
          "type": "bool"
        }
      ],
      "stateMutability": "nonpayable",
      "type": "function"
    },
    {
      "inputs": [
        {
          "internalType": "address",
          "name": "newOwner",
          "type": "address"
        }
      ],
      "name": "transferOwnership",
      "outputs": [],
      "stateMutability": "nonpayable",
      "type": "function"
    },
    {
      "inputs": [
        {
          "internalType": "uint256",
          "name": "amount",
          "type": "uint256"
        },
        {
          "internalType": "uint256",
          "name": "stake_index",
          "type": "uint256"
        }
      ],
      "name": "withdrawStake",
      "outputs": [],
      "stateMutability": "nonpayable",
      "type": "function"
    }
  ],
  "bytecode": "0x60806040526103e86003553480156200001757600080fd5b5060405162001d9738038062001d978339810160408190526200003a916200026b565b600080546001600160a01b0319163390811782556040519091907f8be0079c531659141344cd1fd0a4f28419497f9722a3daafe3b4186f6b6457e0908290a3600180548101815560005283516200009990600790602087019062000112565b508251620000af90600690602086019062000112565b506005805460ff191660ff84161790556004819055336000818152600860209081526040808320859055518481527fddf252ad1be2c89b69c2b068fc378daa952ba7f163c4a11628f55a4df523b3ef910160405180910390a35050505062000345565b8280546200012090620002f2565b90600052602060002090601f0160209004810192826200014457600085556200018f565b82601f106200015f57805160ff19168380011785556200018f565b828001600101855582156200018f579182015b828111156200018f57825182559160200191906001019062000172565b506200019d929150620001a1565b5090565b5b808211156200019d5760008155600101620001a2565b600082601f830112620001c9578081fd5b81516001600160401b0380821115620001e657620001e66200032f565b604051601f8301601f19908116603f011681019082821181831017156200021157620002116200032f565b816040528381526020925086838588010111156200022d578485fd5b8491505b8382101562000250578582018301518183018401529082019062000231565b838211156200026157848385830101525b9695505050505050565b6000806000806080858703121562000281578384fd5b84516001600160401b038082111562000298578586fd5b620002a688838901620001b8565b95506020870151915080821115620002bc578485fd5b50620002cb87828801620001b8565b935050604085015160ff81168114620002e2578283fd5b6060959095015193969295505050565b600181811c908216806200030757607f821691505b602082108114156200032957634e487b7160e01b600052602260045260246000fd5b50919050565b634e487b7160e01b600052604160045260246000fd5b611a4280620003556000396000f3fe608060405234801561001057600080fd5b506004361061012c5760003560e01c80638da5cb5b116100ad578063a9059cbb11610071578063a9059cbb1461027c578063dd62ed3e1461028f578063e73e14bf146102c8578063f1fdf469146102e8578063f2fde38b146102fb57600080fd5b80638da5cb5b1461022a57806395d89b411461023b5780639dc29fac14610243578063a457c2d714610256578063a694fc3a1461026957600080fd5b806339509351116100f457806339509351146101ac57806340c10f19146101bf57806370a08231146101d2578063715018a6146101fb578063893d20e81461020557600080fd5b806306fdde0314610131578063095ea7b31461014f57806318160ddd1461017257806323b872dd14610184578063313ce56714610197575b600080fd5b61013961030e565b6040516101469190611820565b60405180910390f35b61016261015d36600461143f565b6103a0565b6040519015158152602001610146565b6004545b604051908152602001610146565b610162610192366004611404565b6103b6565b60055460405160ff9091168152602001610146565b6101626101ba36600461143f565b6104a0565b6101626101cd36600461143f565b6104d7565b6101766101e03660046113b1565b6001600160a01b031660009081526008602052604090205490565b61020361050c565b005b6000546001600160a01b03165b6040516001600160a01b039091168152602001610146565b6000546001600160a01b0316610212565b610139610580565b61016261025136600461143f565b61058f565b61016261026436600461143f565b6105c4565b610203610277366004611468565b6105fb565b61016261028a36600461143f565b61068d565b61017661029d3660046113d2565b6001600160a01b03918216600090815260096020908152604080832093909416825291909152205490565b6102db6102d63660046113b1565b61069a565b604051610146919061189d565b6102036102f6366004611480565b610878565b6102036103093660046113b1565b610890565b60606007805461031d906119bb565b80601f0160208091040260200160405190810160405280929190818152602001828054610349906119bb565b80156103965780601f1061036b57610100808354040283529160200191610396565b820191906000526020600020905b81548152906001019060200180831161037957829003601f168201915b5050505050905090565b60006103ad3384846108c6565b50600192915050565b60008060066040516020016103cb9190611785565b60405160208183030381529060405290506000816040516020016103ef91906116ee565b60408051601f198184030181529181526001600160a01b03881660009081526009602090815282822033835290522054909150819085111561044d5760405162461bcd60e51b81526004016104449190611820565b60405180910390fd5b506104598686866109e9565b6001600160a01b03861660009081526009602090815260408083203380855292529091205461049491889161048f908890611974565b6108c6565b50600195945050505050565b3360008181526009602090815260408083206001600160a01b038716845290915281205490916103ad91859061048f90869061191d565b600080546001600160a01b031633146105025760405162461bcd60e51b815260040161044490611853565b6103ad8383610bad565b6000546001600160a01b031633146105365760405162461bcd60e51b815260040161044490611853565b600080546040516001600160a01b03909116907f8be0079c531659141344cd1fd0a4f28419497f9722a3daafe3b4186f6b6457e0908390a3600080546001600160a01b0319169055565b60606006805461031d906119bb565b600080546001600160a01b031633146105ba5760405162461bcd60e51b815260040161044490611853565b6103ad8383610cb4565b3360008181526009602090815260408083206001600160a01b038716845290915281205490916103ad91859061048f908690611974565b6000600660405160200161060f9190611785565b60405160208183030381529060405290506000816040516020016106339190611542565b60408051601f1981840301815291815233600090815260086020522054909150819084106106745760405162461bcd60e51b81526004016104449190611820565b5061067e83610e10565b6106883384610cb4565b505050565b60006103ad3384846109e9565b604080518082019091526000815260606020820152600080604051806040016040528060008152602001600160026000886001600160a01b03166001600160a01b03168152602001908152602001600020548154811061070a57634e487b7160e01b600052603260045260246000fd5b9060005260206000209060020201600101805480602002602001604051908101604052809291908181526020016000905b82821015610798576000848152602090819020604080516080810182526004860290920180546001600160a01b0316835260018082015484860152600282015492840192909252600301546060830152908352909201910161073b565b505050915250905060005b81602001515181101561086e5760006107e6836020015183815181106107d957634e487b7160e01b600052603260045260246000fd5b6020026020010151610f68565b9050808360200151838151811061080d57634e487b7160e01b600052603260045260246000fd5b602002602001015160600181815250508260200151828151811061084157634e487b7160e01b600052603260045260246000fd5b60200260200101516020015184610858919061191d565b9350610867905060018261191d565b90506107a3565b5090815292915050565b60006108848383610fa9565b90506106883382610bad565b6000546001600160a01b031633146108ba5760405162461bcd60e51b815260040161044490611853565b6108c381611258565b50565b600060066040516020016108da9190611785565b60405160208183030381529060405290506000816040516020016108fe91906114ee565b60408051601f198184030181529190529050806001600160a01b0386166109385760405162461bcd60e51b81526004016104449190611820565b508160405160200161094a91906114a1565b60408051601f198184030181529190529050806001600160a01b0385166109845760405162461bcd60e51b81526004016104449190611820565b506001600160a01b0385811660008181526009602090815260408083209489168084529482529182902087905590518681527f8c5be1e5ebec7d5bd14f71427d1e84f3dd0314c0f7b2291e5b200ac8c7c3b92591015b60405180910390a35050505050565b600060066040516020016109fd9190611785565b6040516020818303038152906040529050600081604051602001610a2191906115d5565b60408051601f198184030181529190529050806001600160a01b038616610a5b5760405162461bcd60e51b81526004016104449190611820565b5081604051602001610a6d9190611657565b60408051601f198184030181529190529050806001600160a01b038516610aa75760405162461bcd60e51b81526004016104449190611820565b5081604051602001610ab99190611698565b60408051601f198184030181529181526001600160a01b0387166000908152600860205220549091508190841115610b045760405162461bcd60e51b81526004016104449190611820565b506001600160a01b038516600090815260086020526040902054610b29908490611974565b6001600160a01b038087166000908152600860205260408082209390935590861681522054610b5990849061191d565b6001600160a01b0380861660008181526008602052604090819020939093559151908716907fddf252ad1be2c89b69c2b068fc378daa952ba7f163c4a11628f55a4df523b3ef906109da9087815260200190565b60006006604051602001610bc19190611785565b6040516020818303038152906040529050600081604051602001610be59190611744565b60408051601f198184030181529190529050806001600160a01b038516610c1f5760405162461bcd60e51b81526004016104449190611820565b5082600454610c2e919061191d565b6004556001600160a01b038416600090815260086020526040902054610c5590849061191d565b6001600160a01b0385166000818152600860205260408082209390935591519091907fddf252ad1be2c89b69c2b068fc378daa952ba7f163c4a11628f55a4df523b3ef90610ca69087815260200190565b60405180910390a350505050565b60006006604051602001610cc89190611785565b6040516020818303038152906040529050600081604051602001610cec9190611616565b60408051601f198184030181529190529050806001600160a01b038516610d265760405162461bcd60e51b81526004016104449190611820565b5081604051602001610d389190611583565b60408051601f198184030181529181526001600160a01b0386166000908152600860205220549091508190841115610d835760405162461bcd60e51b81526004016104449190611820565b506001600160a01b038416600090815260086020526040902054610da8908490611974565b6001600160a01b038516600090815260086020526040902055600454610dcf908490611974565b6004556040518381526000906001600160a01b038616907fddf252ad1be2c89b69c2b068fc378daa952ba7f163c4a11628f55a4df523b3ef90602001610ca6565b60008111610e575760405162461bcd60e51b815260206004820152601460248201527343616e6e6f74207374616b65206e6f7468696e6760601b6044820152606401610444565b336000908152600260205260409020544281610e7957610e7633611318565b91505b60018281548110610e9a57634e487b7160e01b600052603260045260246000fd5b6000918252602080832060408051608081018252338082528185018a815282840189815260608085018a81526002998a02909701600190810180548083018255908c529a89902095516004909b0290950180546001600160a01b0319166001600160a01b03909b169a909a178a559151938901939093559151958701959095559151600390950194909455835187815291820186905292810184905290917fb4caaf29adda3eefee3ad552a8e85058589bf834c7466cae4ee58787f70589ed910160405180910390a2505050565b60006003548260200151610e10846040015142610f859190611974565b610f8f9190611935565b610f999190611955565b610fa39190611935565b92915050565b336000908152600260205260408120546001805483919083908110610fde57634e487b7160e01b600052603260045260246000fd5b9060005260206000209060020201600101848154811061100e57634e487b7160e01b600052603260045260246000fd5b600091825260209182902060408051608081018252600490930290910180546001600160a01b03168352600181015493830184905260028101549183019190915260030154606082015291508511156110c45760405162461bcd60e51b815260206004820152603260248201527f5374616b696e673a2043616e6e6f74207769746864726177206d6f7265207468604482015271185b881e5bdd481a185d99481cdd185ad95960721b6064820152608401610444565b60006110cf82610f68565b90508582602001516110e19190611974565b60208301819052611171576001838154811061110d57634e487b7160e01b600052603260045260246000fd5b9060005260206000209060020201600101858154811061113d57634e487b7160e01b600052603260045260246000fd5b60009182526020822060049091020180546001600160a01b0319168155600181018290556002810182905560030155611244565b81602001516001848154811061119757634e487b7160e01b600052603260045260246000fd5b906000526020600020906002020160010186815481106111c757634e487b7160e01b600052603260045260246000fd5b90600052602060002090600402016001018190555042600184815481106111fe57634e487b7160e01b600052603260045260246000fd5b9060005260206000209060020201600101868154811061122e57634e487b7160e01b600052603260045260246000fd5b9060005260206000209060040201600201819055505b61124e818761191d565b9695505050505050565b6001600160a01b0381166112bd5760405162461bcd60e51b815260206004820152602660248201527f4f776e61626c653a206e6577206f776e657220697320746865207a65726f206160448201526564647265737360d01b6064820152608401610444565b600080546040516001600160a01b03808516939216917f8be0079c531659141344cd1fd0a4f28419497f9722a3daafe3b4186f6b6457e091a3600080546001600160a01b0319166001600160a01b0392909216919091179055565b60018054810180825560008281529182916113339190611974565b9050826001828154811061135757634e487b7160e01b600052603260045260246000fd5b6000918252602080832060029283020180546001600160a01b0319166001600160a01b03958616179055959092168152935260409092208290555090565b80356001600160a01b03811681146113ac57600080fd5b919050565b6000602082840312156113c2578081fd5b6113cb82611395565b9392505050565b600080604083850312156113e4578081fd5b6113ed83611395565b91506113fb60208401611395565b90509250929050565b600080600060608486031215611418578081fd5b61142184611395565b925061142f60208501611395565b9150604084013590509250925092565b60008060408385031215611451578182fd5b61145a83611395565b946020939093013593505050565b600060208284031215611479578081fd5b5035919050565b60008060408385031215611492578182fd5b50508035926020909101359150565b600082516114b381846020870161198b565b7f3a20617070726f76652063616e6e6f7420626520746f207a65726f20616464729201918252506265737360e81b6020820152602301919050565b6000825161150081846020870161198b565b7f3a20617070726f76652063616e6e6f7420626520646f6e652066726f6d207a6592019182525069726f206164647265737360b01b6020820152602a01919050565b6000825161155481846020870161198b565b7f3a2043616e6e6f74207374616b65206d6f7265207468616e20796f75206f776e920191825250602001919050565b6000825161159581846020870161198b565b7f3a2043616e6e6f74206275726e206d6f7265207468616e20746865206163636f92019182525067756e74206f776e7360c01b6020820152602801919050565b600082516115e781846020870161198b565b7f3a207472616e736665722066726f6d207a65726f206164647265737300000000920191825250601c01919050565b6000825161162881846020870161198b565b7f3a2063616e6e6f74206275726e2066726f6d207a65726f206164647265737300920191825250601f01919050565b6000825161166981846020870161198b565b7f3a207472616e7366657220746f207a65726f2061646472657373000000000000920191825250601a01919050565b600082516116aa81846020870161198b565b7f3a2063616e74207472616e73666572206d6f7265207468616e20796f757220619201918252506b63636f756e7420686f6c647360a01b6020820152602c01919050565b6000825161170081846020870161198b565b7f3a20596f752063616e6e6f74207370656e642074686174206d756368206f6e209201918252506b1d1a1a5cc81858d8dbdd5b9d60a21b6020820152602c01919050565b6000825161175681846020870161198b565b7f3a2063616e6e6f74206d696e7420746f207a65726f2061646472657373000000920191825250601d01919050565b600080835482600182811c9150808316806117a157607f831692505b60208084108214156117c157634e487b7160e01b87526022600452602487fd5b8180156117d557600181146117e657611812565b60ff19861689528489019650611812565b60008a815260209020885b8681101561180a5781548b8201529085019083016117f1565b505084890196505b509498975050505050505050565b602081526000825180602084015261183f81604085016020870161198b565b601f01601f19169190910160400192915050565b6020808252602a908201527f4f776e61626c653a206f6e6c79206f776e65722063616e2063616c6c207468696040820152693990333ab731ba34b7b760b11b606082015260800190565b60006020808352606080840185518386015282860151604080818801528282518085526080945084890191508684019350875b8181101561190e57845180516001600160a01b03168452888101518985015284810151858501528701518784015293870193918501916001016118d0565b50909998505050505050505050565b60008219821115611930576119306119f6565b500190565b60008261195057634e487b7160e01b81526012600452602481fd5b500490565b600081600019048311821515161561196f5761196f6119f6565b500290565b600082821015611986576119866119f6565b500390565b60005b838110156119a657818101518382015260200161198e565b838111156119b5576000848401525b50505050565b600181811c908216806119cf57607f821691505b602082108114156119f057634e487b7160e01b600052602260045260246000fd5b50919050565b634e487b7160e01b600052601160045260246000fdfea26469706673582212202ed614711001c621996de91bdef3398460285ef722e48f030730d0d01f9046ba64736f6c63430008040033",
  "linkReferences": {},
  "deployedLinkReferences": {}
}